S01600004D795F5573657250726F6772616D2E7372656372
S3150801000000000220610A01082D0A01082F0A0108C9
S31508010010310A0108330A0108350A010800000000FF
S31508010020000000000000000000000000370A010877
S31508010030390A0108000000003B0A01083D0A0108C7
S31508010040B10A0108B10A0108B10A0108B10A010891
S31508010050B10A0108B10A0108B10A0108B10A010881
S31508010060B10A0108B10A0108B10A0108B10A010871
S31508010070B10A0108B10A0108B10A0108B10A010861
S31508010080B10A0108B10A0108B10A0108B10A010851
S31508010090B10A0108B10A0108B10A0108B10A010841
S315080100A0B10A0108B10A0108B10A0108B10A010831
S315080100B0B10A0108B10A0108B10A0108B10A010821
S315080100C0B10A0108B10A0108B10A0108B10A010811
S315080100D0B10A0108B10A0108B10A0108B10A010801
S315080100E0B10A0108B10A0108B10A0108B10A0108F1
S315080100F0B10A0108B10A0108B10A0108B10A0108E1
S31508010100B10A0108B10A0108B10A0108B10A0108D0
S31508010110B10A0108B10A0108B10A0108B10A0108C0
S31508010120B10A0108B10A0108B10A0108B10A0108B0
S31508010130B10A0108B10A0108B10A0108B10A0108A0
S31508010140B10A0108B10A0108B10A0108B10A010890
S31508010150B10A0108B10A0108B10A0108B10A010880
S31508010160B10A0108B10A0108B10A0108B10A010870
S31508010170B10A0108B10A0108B10A01080000000024
S30D08010180B10A0108B10A0108E0
S3150801018810B5054C237833B9044B13B10448AFF3BA
S3150801019800800123237010BD0C0000200000000018
S315080101A86C1C010808B5034B1BB103490348AFF397
S315080101B8008008BD00000000100000206C1C010822
S315080101C853B94AB9002908BF00281CBF4FF0FF31A7
S315080101D84FF0FF3000F070B9ADF1080C6DE904CEA7
S315080101E800F006F8DDF804E0DDE9022304B07047FB
S315080101F82DE9F047089E0D4604460F46002B4AD1BD
S315080102088A42944665D9B2FA82F343B102FA03FCE3
S31508010218C3F120029F4020FA02F217439C404FEA95
S315080102281C4E1FFA8CF5B7FBFEF1220C0EFB117753
S3150801023842EA074201FB05F090420AD91CEB020281
S3150801024801F1FF3780F01C81904240F21981023989
S315080102586244121AA4B2B2FBFEF00EFB102244EA5B
S31508010268024400FB05F5A5420AD91CEB040400F172
S31508010278FF3280F00781A54240F2048164440238BE
S3150801028840EA0140641B00211EB1DC400023C6E98F
S315080102980043BDE8F0878B4208D9002E00F0ED80AF
S315080102A80021C6E900050846BDE8F087B3FA83F1D7
S315080102B8002949D1AB4202D3824200F2F880841A56
S315080102C865EB030201201746002EE2D0C6E900476E
S315080102D8DFE702B9FFDEB2FA82F3002B40F090801D
S315080102E88A1A4FEA1C471FFA8CFE0121B2FBF7F559
S315080102F807FB1520220C42EA00420EFB05F0904244
S3150801030808D91CEB020205F1FF3802D2904200F225
S31508010318CB804546121AA4B2B2FBF7F007FB1022A6
S3150801032844EA02440EFB00FEA64508D91CEB040460
S3150801033800F1FF3202D2A64500F2BB801046A4EBB3
S315080103480E0440EA05409FE7C1F120078B4022FACF
S3150801035807FC4CEA030C05FA01F420FA07F3FD40F9
S315080103684FEA1C492343B5FBF9F81FFA8CFE09FB2A
S3150801037818551C0C44EA054408FB0EF5A54202FA71
S3150801038801F200FA01F00BD91CEB040408F1FF3A53
S3150801039880F08880A54240F28580A8F10208644465
S315080103A8641B9DB2B4FBF9F309FB134445EA0444FB
S315080103B803FB0EFEA64508D91CEB040403F1FF3519
S315080103C86CD2A6456AD9023B644443EA0843A3FBAF
S315080103D80295A4EB0E04AC42C846AE4656D353D092
S315080103E856B1B0EB080264EB0E0404FA07F7CA40E3
S315080103F8CC401743C6E9007418460021BDE8F087C2
S31508010408C3F1200102FA03FC20FA01F225FA01F1E7
S315080104189D402A434FEA1C471FFA8CFEB1FBF7F0A9
S3150801042807FB1015110C41EA054100FB0EF58D4233
S3150801043804FA03F408D91CEB010100F1FF382FD29D
S315080104488D422DD902386144491B92B2B1FBF7F5A1
S3150801045807FB151142EA014205FB0EF1914208D93B
S315080104681CEB020205F1FF3816D2914214D9023D56
S315080104786244521A45EA004138E73146304608E7E8
S315080104883946E6E61046FBE64845A9D2B9EB02081D
S3150801049865EB0C0E013BA3E74546EAE72B4694E7CD
S315080104A84046D1E7D0467BE7023D624432E7084633
S315080104B80AE76444023842E7704700BF08B500F006
S315080104C873F900F03DF900F0B1F808BD08B500F078
S315080104D841F900F02FF908BD08B50848084B03602B
S315080104E84FF4E133436000238360C360036183618A
S315080104F80C224261C36101F0E5FA08BD50000020EB
S31508010508004400402DE9F04104460D461746984631
S3150801051801F09AF9164BA3FB00318909002301E07A
S315080105280133DBB2112B1FD8124A12F8130002EB5A
S315080105384302527800EB020C0CFB044CB1FBFCFE9F
S315080105480CFB1E16002EEBD11FFA8EFCA5F800C06F
S315080105580CF1FF3C1FFA8CFCBCF5806FE0D23870B1
S3150801056888F80020012000E00020BDE8F08100BFDE
S31508010578D34D6210841C010870B58CB00025ADF8FE
S315080105882E508DF82D508DF82C500BAB0DF12D02F0
S315080105980DF12E014FF4FA70FFF7B4FF1A4C1B4BF5
S315080105A8236025766576A5760126E6762577657725
S315080105B8A560E5609DF82D30013B1B0423619DF874
S315080105C82C30013B1B056361BDF82E30636020465C
S315080105D800F0BEFA0695079508964CF6E04301938E
S315080105E802954FF6E0730393042304930595099638
S315080105F80E230A9301A9204600F050FB204600F075
S31508010608E9FB0CB070BD00BF28000020006400405B
S3150801061808B5014600230122034801F082FA08B108
S31508010628002008BD0120FCE75000002008B5FFF7A7
S3150801063853FFFFF7A1FF08BDBFF34F8F0549CA68E6
S3150801064802F4E062044B1343CB60BFF34F8F00BF3C
S31508010658FDE700BF00ED00E00400FA0508B5214BE7
S315080106681B78B3B92048FFF7D3FF012800D008BD86
S315080106781D4B1B78013BDBB2802BF8D800F095F8A7
S315080106881A4B1860174B01221A70194B00221A7057
S31508010698EDE7174B1B78013313481844FFF7B8FFE2
S315080106A8012813D1124A13780133DBB213700E4AA3
S315080106B812789342DBD10B4A002111700A4A527803
S315080106C8FF2AD4D1022BD2D1FFF7B6FF00F06DF875
S315080106D8064B1B6864339842C9D9024B00221A7023
S315080106E8C5E700BF12010020900000201401002070
S315080106F81301002000B58BB001AB03AA00210C48F1
S3150801070800F096FB20B9039A40F267639A4202D031
S315080107180BB05DF804FB059B002BF9D19DF8043055
S31508010728FF2BF5D1079B022BF2D1FFF785FF00BFF7
S315080107382800002008B5FFF791FFFFF7DBFF08BD82
S3150801074808B501224FF40051014800F05DFD08BDC6
S31508010758000C024010B500F028F8104B1B68C31AA4
S31508010768B3F5FA7F0ED304460D4B1B785BB90C4BD0
S3150801077801221A7000224FF400510A4800F044FD7C
S31508010788064B1C6010BD064B00221A7001224FF455
S315080107980051044800F038FDF2E700BF1C010020AB
S315080107A818010020000C0240704708B500F0CAF984
S315080107B808BD0000014A024B9A607047000001080B
S315080107C800ED00E030B58BB0002405940694079433
S315080107D80894099401941E4B1A6B42F080021A6315
S315080107E81A6B02F080020192019A02941A6B42F07E
S315080107F801021A631A6B02F001020292029A039421
S315080108081A6B42F004021A631A6B02F00402039285
S31508010818039A04941A6B42F002021A631B6B03F0DB
S3150801082802030493049B0B4D01224FF48051284679
S3150801083800F0EAFC4FF480530593012306930794C5
S31508010848089405A9284600F0F7FB0BB030BD00BF90
S31508010858003802400008024030B595B03022002120
S3150801086808A801F0D3F9002403940494059406947E
S31508010878079401941C4B1A6C42F080521A641B6C3B
S3150801088803F080530193019B0294184B1A6842F4AA
S3150801089880421A601B6803F480430293029B012372
S315080108A808934FF48033099302250E954FF4800374
S315080108B80F93082310934FF4A873119312950423E1
S315080108C8139308A800F0A6FC0F230393049505942F
S315080108D84FF4A05306934FF480530793052103A8B1
S315080108E800F0FCFE15B030BD00380240007000402B
S315080108F808B5FFF75FFF00F0FFF8FFF7ADFFFFF751
S3150801090861FFFFF7DBFDFFF7E1FDFCE782B0002198
S3150801091800910B4B5A6C42F480425A645A6C02F4A1
S3150801092880420092009A01911A6C42F080521A6428
S315080109381B6C03F080530193019B02B0704700BFFB
S315080109480038024000B589B0002303930493059340
S31508010958069307930268154B9A4202D009B05DF8C7
S3150801096804FB0021019103F5EA331A6C42F000727F
S315080109781A641A6C02F000720192019A02911A6BB2
S3150801098842F002021A631B6B03F002030293029BED
S315080109984FF440730393022304930323069309230D
S315080109A8079303A9024800F047FBD7E7006400400C
S315080109B80004024000B589B0002303930493059304
S315080109C8069307930268154B9A4202D009B05DF857
S315080109D804FB0021019103F5FA331A6C42F400323B
S315080109E81A641A6C02F400320192019A02911A6B7E
S315080109F842F001021A631B6B03F001030293029B7F
S31508010A080C230393022304930323069307230793CB
S31508010A1803A9034800F010FBD8E700BF00440040CB
S31508010A28000002407047FEE7FEE7FEE7FEE770476B
S31508010A387047704708B500F079F808BD054BD3F833
S31508010A48882042F47002C3F888204FF000629A6041
S31508010A58704700BF00ED00E0DFF834D0FFF7EEFF7E
S31508010A680C480D490D4A002302E0D458C4500433F2
S31508010A78C4188C42F9D30A4A0A4C002301E01360C8
S31508010A880432A242FBD301F0C9F8FFF731FF7047D8
S31508010A9800000220000000200C000020D01C0108DC
S31508010AA80C00002024010020FEE7000010B50446CA
S31508010AB80E4B1A784FF47A73B3FBF2F30C4A1068A3
S31508010AC8B0FBF3F000F0A4FA68B90F2C01D901209C
S31508010AD80AE0002221464FF0FF3000F061FA054B83
S31508010AE81C60002000E0012010BD00BF04000020A2
S31508010AF8000000200800002008B50B4B1A6842F4CC
S31508010B0800721A601A6842F480621A601A6842F416
S31508010B1880721A60032000F031FA0020FFF7C6FF39
S31508010B28FFF7F4FE002008BD003C0240034A11689D
S31508010B38034B1B780B441360704700BF2001002044
S31508010B4804000020014B1868704700BF20010020E7
S31508010B58002800F0A18038B5044690F82030D3B1B2
S31508010B682268136823F002031360FFF7EBFF0546B3
S31508010B7823685A6812F0020F10D0FFF7E3FF401BEB
S31508010B880A28F5D9636A43F400336362052384F8AE
S31508010B982030012038BDFFF7D5FEE1E71A6842F093
S31508010BA801021A60FFF7CEFF054623685A6812F054
S31508010BB8010F0DD1FFF7C6FF401B0A28F5D9636A4D
S31508010BC843F400336362052384F820300120E1E702
S31508010BD8227E012A3DD01A6822F080021A60637EB5
S31508010BE8012B3BD02268136823F040031360A37EC8
S31508010BF8012B39D02268136823F020031360E37E9A
S31508010C08012B37D02268136843F010031360237F3A
S31508010C18012B35D02268136823F008031360637F14
S31508010C28012B33D02268136823F004031360A368E1
S31508010C38E268134322691343626913436268013AF6
S31508010C4821681343CB6100206062012384F82030B0
S31508010C58A0E71A6842F080021A60C0E7226813689A
S31508010C6843F040031360C2E72268136843F0200380
S31508010C781360C4E72268136823F010031360C6E7F4
S31508010C882268136843F008031360C8E722681368E3
S31508010C9843F004031360CAE70120704790F820302F
S31508010CA8013BDBB2012B05D9436A43F4802343622E
S31508010CB80120704730B5464BD3F8002242F00102AD
S31508010CC8C3F80022D3F8002222F47C52C3F8002282
S31508010CD8D3F80022486A42EA0022C3F800224A6980
S31508010CE802F01F02012000FA02F2D3F81C026FEA89
S31508010CF8020C20EA0200C3F81C02CB69C3B9344BBB
S31508010D08D3F80C020CEA0000C3F80C028C8848696F
S31508010D18CD6844EA0544483043F830408C68088869
S31508010D2840EA04404C6904F1480E03EBCE035860C7
S31508010D38CB69012B1ED08B69002B33D12448D0F8F7
S31508010D4804320CEA0303C0F804320B698BBB20484A
S31508010D58D0F814320CEA0303C0F814320B6A012BD3
S31508010D682ED01B4AD2F8003223F00103C2F800320A
S31508010D78002030BD164BD3F80C021043C3F80C02F9
S31508010D888C8848690D6844EA0544483043F8304078
S31508010D9888894C698D6840EA0540483403EBC403E1
S31508010DA85860C8E70A48D0F804321343C0F8043231
S31508010DB8CBE70748D0F814321343C0F81432CDE705
S31508010DC80349D1F81C321343C1F81C32C9E700BFDD
S31508010DD80064004070B5044690F82050EDB2012D24
S31508010DE806D0436A43F4002343620125284670BDA9
S31508010DF8022380F820300268136823F00103136080
S31508010E08FFF7A0FE064623685B6813F0010F0CD0AE
S31508010E18FFF798FE831B0A2BF5D9636A43F4003357
S31508010E286362052384F82030E0E700256562DDE77B
S31508010E3890F820C00CF1FF3C5FFA8CFCBCF1010F5D
S31508010E4800F2958030B451B90468E46814F0030FC8
S31508010E5810D1436A43F400134362012077E004681A
S31508010E68246914F0030F05D1436A43F40013436256
S31508010E7801206CE001F11B04240105682C5904F0D2
S31508010E8804049460002C64D101F11B04240105684B
S31508010E982C59640D1460046801F11B0C4FEA0C1CEB
S31508010EA854F80C4004F00204D46004686444646885
S31508010EB804F00F041461046864446468C4F30724DD
S31508010EC89461046864446468240C5461026802EBFA
S31508010ED80112D2F8B8211A70026802EB0112D2F887
S31508010EE8B821C2F307225A70026802EB0112D2F836
S31508010EF8B821C2F307429A70026802EB0112D2F8C6
S31508010F08B821120EDA70026802EB0112D2F8BC2176
S31508010F181A71026802EB0112D2F8BC21C2F3072240
S31508010F285A71026802EB0112D2F8BC21C2F30742D0
S31508010F389A71026802EB0112D2F8BC21120EDA7113
S31508010F4879B90268D36843F02003D360002030BC1E
S31508010F58704701F11B04240105682C59E4085460FB
S31508010F6899E70268136943F020031361EEE7436AB8
S31508010F7843F480234362012070470000074AD36877
S31508010F8823F4E0631B041B0C000200F4E06003432E
S31508010F9843F0BF6343F40033D360704700ED00E0C4
S31508010FA800B5194BDB68C3F30223C3F1070CBCF17F
S31508010FB8040F28BF4FF0040C03F1040EBEF1060F07
S31508010FC818D9033B4FF0FF3E0EFA0CFC21EA0C0137
S31508010FD899400EFA03FE22EA0E020A4300280BDBA1
S31508010FE81201D2B200F1604000F5614080F8002391
S31508010FF85DF804FB0023E5E700F00F001201D2B201
S31508011008024B1A54F4E700BF00ED00E014ED00E0C6
S315080110180138B0F1807F0BD24FF0E0235861054AB9
S31508011028F02182F823100020986107221A61704777
S315080110380120704700ED00E000230F2B00F2DA804B
S31508011048F0B583B03AE0072200E00022AA4032430D
S315080110580234694D45F82420684A14686FEA0C0277
S3150801106824EA0C054E6816F4803F01D04CEA0405BB
S31508011078624C2560646802EA04054E6816F4003F66
S3150801108801D04CEA04055D4C6560A46802EA0405CA
S315080110984E6816F4801F01D04CEA0405574CA56022
S315080110A8E46822404D6815F4001F01D04CEA040291
S315080110B8524CE26001330F2B00F29A8001229A40C2
S315080110C80C6804EA020C32EA0404F3D14C68651E7A
S315080110D8012D03D9112C01D0122C12D185685E0075
S315080110E80324B44025EA0405CC68B4402C4384603B
S315080110F8446824EA02044A68C2F300129A40224361
S315080111084260C5684FEA430E032202FA0EF2D44337
S3150801111825EA02058A6802FA0EF22A43C2604A6873
S31508011128022A01D0122A0FD1DD08083550F8257090
S3150801113803F00706B6000F22B24027EA02070A6932
S31508011148B2403A4340F82520026814404A6802F03A
S31508011158030202FA0EF2224302604A6812F0805F1D
S31508011168A8D000220192264A546C44F48044546457
S31508011178526C02F480420192019A9C08A51C1E4AE7
S3150801118852F8256003F00305AD000F22AA4026EAA6
S3150801119802061C4A90423FF458AF02F58062904213
S315080111A81AD002F58062904218D002F58062904200
S315080111B816D002F58062904214D002F580629042F8
S315080111C812D002F58062904210D002F580629042F0
S315080111D83FF439AF082239E7012237E7022235E712
S315080111E8032233E7042231E705222FE706222DE7F2
S315080111F803B0F0BD704700BF00380140003C01400C
S3150801120800380240000002400AB1816170470904AA
S3150801121881617047002800F0DA8170B582B004460A
S31508011228036813F0010F3BD09F4B9B6803F00C032F
S31508011238042B2CD09C4B9B6803F00C03082B21D05C
S315080112486368B3F5803F4FD0B3F5A02F52D0964BBC
S315080112581A6822F480321A601A6822F480221A60FF
S315080112686368002B50D0FFF76DFC05468E4B1B684B
S3150801127813F4003F14D1FFF765FC401B6428F5D920
S315080112880320ABE1884B5B6813F4800FD8D0864BF3
S315080112981B6813F4003F03D06368002B00F099819B
S315080112A8236813F0020F54D07F4B9B6813F00C0F79
S315080112B83ED07D4B9B6803F00C03082B33D0E368BB
S315080112C8002B68D0794B01221A60FFF73BFC0546CB
S315080112D8754B1B6813F0020F54D1FFF733FC401BFB
S315080112E80228F5D9032079E16F4A136843F4803354
S315080112F81360B5E76C4B1A6842F480221A601A68BB
S3150801130842F480321A60ABE7FFF71CFC0546664BC8
S315080113181B6813F4003FC3D0FFF714FC401B64286D
S31508011328F5D903205AE1604B5B6813F4800FC6D1DF
S315080113385D4B1B6813F0020F03D0E368012B40F0DD
S315080113484A81594A136823F0F803216943EAC10314
S315080113581360236813F0080F42D063696BB3534BC4
S315080113680122C3F8802EFFF7EDFB05464E4B5B6F4E
S3150801137813F0020F34D1FFF7E5FB401B0228F5D914
S3150801138803202BE1484A136823F0F803216943EA45
S31508011398C1031360DDE7454B00221A60FFF7D2FB4C
S315080113A80546414B1B6813F0020FD2D0FFF7CAFB5B
S315080113B8401B0228F5D9032010E13C4B0022C3F84B
S315080113C8802EFFF7BFFB0546374B5B6F13F0020FFD
S315080113D806D0FFF7B7FB401B0228F5D90320FDE025
S315080113E8236813F0040F77D02F4B1B6C13F0805F1B
S315080113F833D1002301932C4B1A6C42F080521A649C
S315080114081B6C03F080530193019B0125284B1B682C
S3150801141813F4807F23D0A368012B34D0052B38D049
S31508011428214B1A6F22F001021A671A6F22F0040279
S315080114381A67A368002B3DD0FFF784FB06461A4BAB
S315080114481B6F13F0020F46D1FFF77CFB801B41F295
S3150801145888339842F3D90320C0E00025D6E7144A11
S31508011468136843F480731360FFF76CFB0646104B49
S315080114781B6813F4807FCED1FFF764FB801B022813
S31508011488F5D90320AAE0084A136F43F00103136745
S31508011498CFE7054B1A6F42F004021A671A6F42F032
S315080114A801021A67C5E700BF003802400000474233
S315080114B800700040FFF746FB06464F4B1B6F13F0BB
S315080114C8020F08D0FFF73EFB801B41F2883398428A
S315080114D8F3D9032082E0E5B9A369002B7DD0464AF2
S315080114E8926802F00C02082A51D0022B17D0434BF6
S315080114F800221A66FFF726FB04463F4B1B6813F0C2
S31508011508007F42D0FFF71EFB001B0228F5D90320EE
S3150801151864E0394A136C23F080531364DCE7374BCC
S3150801152800221A66FFF70EFB0546334B1B6813F0B4
S31508011538007F06D0FFF706FB401B0228F5D90320D2
S315080115484CE0E369226A1343626A43EA8213A26A90
S315080115585208013A43EA0243E26A43EA0263264A1F
S315080115685360264B01221A66FFF7ECFA0446224B0A
S315080115781B6813F0007F06D1FFF7E4FA001B02285F
S31508011588F5D903202AE0002028E0002026E0012BCF
S3150801159826D0194B5B6803F48001E269914221D18F
S315080115A803F03F02216A8A421ED1616A47F6C07270
S315080115B81A408A421AD103F44032A16A8A4217D1DB
S315080115C803F07063E26A934214D1002006E0012011
S315080115D87047012002E0012000E0002002B070BD3A
S315080115E80120FBE70120F9E70120F7E70120F5E7E4
S315080115F80120F3E70120F1E70038024000004742DD
S3150801160808B5334B9B6803F00C03042B5BD0082BF6
S315080116185BD12F4B5A6802F03F025B6813F4800FBF
S315080116282CD02B4B5868C0F388104FEA401CBCEBEA
S31508011638000C6EEB0E0E4FEA8E1343EA9C634FEAD3
S315080116488C11B1EB0C0163EB0E03DB0043EA517312
S31508011658C90011EB000C43F10003590200234FEAB4
S315080116684C2041EADC51FEF7ABFD194B5B68C3F325
S31508011678014301335B00B0FBF3F027E0144B5868CC
S31508011688C0F388104FEA401CBCEB000C6EEB0E0E3B
S315080116984FEA8E1343EA9C634FEA8C11B1EB0C01AE
S315080116A863EB0E03DB0043EA5173C90011EB000C27
S315080116B843F10003990200234FEA8C2041EA9C5121
S315080116C8FEF77EFDD1E7034800E0034808BD00BFE1
S315080116D80038024000127A000024F400002800F0BD
S315080116E89B8070B50D4604464F4B1B6803F00703EC
S315080116F88B4208D2CBB24C4A1370136803F007031E
S315080117088B4240F08B80236813F0020F17D013F031
S31508011718040F04D0454A936843F4E0539360236859
S3150801172813F0080F04D0414A936843F46043936061
S315080117383E4A936823F0F003A1680B439360236834
S3150801174813F0010F32D06368012B21D09A1E012AA2
S3150801175825D9364A126812F0020F61D033498A68C8
S3150801176822F0030213438B60FFF7ECF906462F4B69
S315080117789B6803F00C036268B3EB820F16D0FFF778
S31508011788E1F9801B41F288339842F0D9032042E0F7
S31508011798264A126812F4003FE0D101203BE0234AA9
S315080117A8126812F0007FD9D1012034E01E4B1B685C
S315080117B803F00703AB4207D9EAB21B4B1A701B6839
S315080117C803F00703AB422DD1236813F0040F06D0A3
S315080117D8164A936823F4E053E1680B439360236838
S315080117E813F0080F07D0114A936823F46043216957
S315080117F843EAC1039360FFF703FF0C4B9B68C3F3E6
S3150801180803130B4AD35CD8400A4B18600A4B18686D
S31508011818FFF74CF9002070BD012070470120FAE74F
S315080118280120F8E70120F6E7003C024000380240AB
S31508011838A81C01080000002008000020014B1868B0
S31508011848704700BF0000002008B5FFF7F7FF044BF3
S315080118589B68C3F38223034AD35CD84008BD00BFFB
S3150801186800380240B81C010808B5FFF7E7FF044B22
S315080118789B68C3F34233034AD35CD84008BD00BF0B
S3150801188800380240B81C010810B5044602681369F5
S3150801189823F44053C1680B431361836802691A43E9
S315080118A843691A43C3691A430168CB6823F4164383
S315080118B823F00C031343CB600268536923F440737E
S315080118C881690B435361C369B3F5004F35D0036882
S315080118D8604A934200F0918002F58062934200F0D3
S315080118E88C80FFF7B1FF0021031849411B1841F104
S315080118F80001C90041EA5371DB00181863684FEA09
S3150801190883024FEA937341F10001FEF759FC524AE3
S31508011918A2FB00314909642303FB11031B01323376
S31508011928A2FB03235B0903F0F00202EB011203F0A1
S315080119380F03216813448B608AE00368454A93427A
S315080119482FD002F5806293422BD0FFF77DFF002343
S31508011958021843EB0301121841F10001C90041EAD3
S315080119685271D200101841F10001626892185B4160
S31508011978FEF726FC384AA2FB00314909642303FB12
S315080119881103DB003233A2FB03235B095A0002F475
S31508011998F87202EB011203F00703216813448B60FE
S315080119A856E0FFF761FF0023021843EB03011218FB
S315080119B841F10001C90041EA5271D200101841F1FA
S315080119C80001626892185B41FEF7FAFB224AA2FBFC
S315080119D800314909642303FB1103DB003233A2FBF7
S315080119E803235B095A0002F4F87202EB011203F0A9
S315080119F80703216813448B602AE0FFF735FF0021A6
S31508011A08031849411B1841F10001C90041EA5371FC
S31508011A18DB00181863684FEA83024FEA937341F1AA
S31508011A280001FEF7CDFB0C4AA2FB003149096423E4
S31508011A3803FB11031B013233A2FB03235B0903F0E2
S31508011A48F00202EB011203F00F03216813448B60BD
S31508011A5810BD00BF001001401F85EB512DE9F84361
S31508011A6805460F4616469946DDF820802B681C68F8
S31508011A7837EA04040CBF01240024B4421FD1B8F183
S31508011A88FF3FF3D0B8F1000F05D0FFF75BF8A0EBDD
S31508011A9809004045EAD92A68D36823F4D073D36084
S31508011AA82A68536923F001035361202385F83930DD
S31508011AB885F83A30002385F83830032000E00020FD
S31508011AC8BDE8F88358B310B5044690F839300BB316
S31508011AD8242384F839302268D36823F40053D36061
S31508011AE82046FFF7D1FE2268136923F49043136150
S31508011AF82268536923F02A0353612268D36843F499
S31508011B080053D3600020E063202384F8393084F831
S31508011B183A3010BD80F83830FEF74CFFD8E7012077
S31508011B2870472DE9F04383B01E4690F83A30DBB288
S31508011B38202B5DD104460D46904600295CD0002A23
S31508011B485CD090F83830012B5AD0012380F8383008
S31508011B584FF00009C0F83C90222380F83A30FEF786
S31508011B68F1FF0746A4F82C80A4F82E8084F838904B
S31508011B781DE000963B46002220212046FFF76EFF0E
S31508011B8800283FD1236933B923685B68C3F308037F
S31508011B9825F8023B0BE023685B68DBB225F8013BB5
S31508011BA805E023685B6803F07F0305F8013BE38DCD
S31508011BB89BB2C3B1E28D92B2013A92B2E285A368A9
S31508011BC8B3F5805FD5D000963B46002220212046F2
S31508011BD8FFF744FFC0B92369002BE2D123685B6884
S31508011BE805F8013BE3E7202384F83A30002000E0B2
S31508011BF8022003B0BDE8F0830120FAE70120F8E7DF
S31508011C080220F6E70320F4E70320F2E70244034635
S31508011C18934200D1704703F8011BF9E770B50D4DDA
S31508011C280D4C641BA4100026A64209D10B4D0C4C79
S31508011C3800F018F8641BA4100026A64205D170BD49
S31508011C4855F8043B98470136EEE755F8043B98479B
S31508011C580136F2E7C81C0108C81C0108C81C010896
S31508011C68CC1C0108F8B500BFF8BC08BC9E467047ED
S31108011C78F8B500BFF8BC08BC9E467047D2
S31508011C8405020602060307030803090309040A04ED
S31508011C940B040C040C050D050E050F050F0610069D
S31508011CA410071008000000000000000001020304E8
S31108011CB4060708090000000001020304ED
S30D08011CC038E5FF7F0100000071
S30908011CC8AD01010852
S30908011CCC8901010872
S31108011CD00024F4000100000010000000D0
S70508010A6186
